:020000040800F2
:100000009018002011020008F3140008F9130008EA
:10001000F114000865030008311900080000000011
:10002000000000000000000000000000F7140008BD
:100030001904000800000000F5140008F914000875
:100040002B0200082B0200082B0200082B020008DC
:100050002B0200082B0200082B0200082B020008CC
:100060002B0200082B0200082B0200082B020008BC
:100070002B0200082B0200082B0200082B020008AC
:100080002B0200082B0200082B0200082B0200089C
:100090002B0200082B0200082B0200082B0200088C
:1000A0002B0200082B0200082B0200082B0200087C
:1000B0002B0200082B0200082B0200082B0200086C
:1000C0002B0200082B0200082B0200082B0200085C
:1000D0002B0200082B0200082B0200082B0200084C
:1000E0002B0200082B0200082B0200082B0200083C
:1000F0002B0200082B0200082B0200082B0200082C
:100100002B0200082B0200082B0200082B0200081B
:100110002B0200082B0200082B0200082B0200080B
:100120002B020008690300082B0200082B020008BC
:100130002B0200082B0200082B0200082B020008EB
:100140002B0200082B0200082B0200082B020008DB
:100150002B0200082B0200082B0200082B020008CB
:100160002B0200082B0200082B0200082B020008BB
:100170002B0200082B0200082B02000800000000E0
:100180002B0200082B0200082B0200082B0200089B
:100190002B0200082B0200082B0200082B0200088B
:1001A0002B0200082B0200082B0200082B0200087B
:1001B0002B0200082B0200082B0200082B0200086B
:1001C0002B0200082B020008000000002B02000890
:1001D0002B0200082B0200082B0200082B0200084B
:1001E0002B0200082B0200082B0200082B0200083B
:1001F0002B0200082B020008DFF810D000F0A0F856
:1002000000F06EF800480047691B000890180020B5
:100210000648804706480047FEE7FEE7FEE7FEE7A0
:10022000FEE7FEE7FEE7FEE7FEE7FEE7FD14000857
:10023000F90100082DE9F05F0546002092469B4633
:1002400088460646814640241BE0284641464746EC
:10025000224600F064F853465A46C01A914110D322
:1002600011461846224600F04BF82D1A67EB01089C
:100270004F4622460120002100F042F817EB00090A
:100280004E41201EA4F10104DFDC484631462A46D7
:100290004346BDE8F09F00000649074A08685043FE
:1002A00043F2390210440860400870470149086071
:1002B00070470000100000206D4EC641D2B201E030
:1002C00000F8012B491EFBD270470022F6E710B55B
:1002D00013460A4604461946FFF7F0FF204610BDB4
:1002E00070B5054C054D03E0206820448047241D6F
:1002F000AC42F9D170BD0000D81B0008DC1B00081F
:10030000202A04DB203A00FA02F1002070479140D5
:10031000C2F1200320FA03F3194390407047202ACA
:1003200004DB203A21FA02F00021704721FA02F39F
:10033000D040C2F1200291400843194670470000A6
:10034000064C074D06E0E06840F0010394E8070022
:1003500098471034AC42F6D3FFF752FFB81B0008A1
:10036000D81B0008FEE70000014800F057B8000065
:100370002C14002001681823CAB2103AB2FBF3F221
:10038000054B6FF30901032A9B5CC36500D9091D66
:100390008165084670470000A01B000810B58369FE
:1003A0004FF0C074826A0146002053B1B3F5005F7C
:1003B00015D072B1012A0CD0022A0AD0032A09D121
:1003C00004E01AB1012A06D0022A03D1C96AC90180
:1003D00000D5012010BDC96AA142FAD010BD002A83
:1003E000F7D0012AF2D0022AF3D0032AF3D010BDAD
:1003F00030B50468256825F48025256004686360AD
:100400008368402B036803D099600068C26030BDE8
:100410009A600068C16030BD704770472DE9F843AD
:1004200004464FF00009644B0820CDF800904FF4CB
:100430001652A56D94F85C101B682E68B3FBF2F79A
:1004400000FA01F131420FD021680A6852070BD53A
:100450000A6822F004020A6094F85C108840A860E0
:10046000606D40F00100606594F85C104FF0010889
:1004700008FA01F0304208D021684969090604D51C
:10048000A860606D40F00200606594F85C10042084
:100490008840304208D021680968890704D5A860DF
:1004A000606D40F00400606594F85C101020884096
:1004B000304218D021680968090714D5A86020685F
:1004C0000168490304D50068000308D5A16C07E062
:1004D0000168C90503D4016821F008010160216C9D
:1004E00009B12046884794F85C10202088403042AB
:1004F00031D021680968C9062DD5A86094F8350067
:1005000005282068016806D0490347D50068000324
:100510001DD4616C1CE021F0160101602068416966
:1005200021F080014161206C08B9A06C20B12068E5
:10053000016821F00801016094F85C303F229A4084
:10054000AA6084F8349084F83580216D1FE0E16B57
:1005500009B120468847606D00282BD0606DC00728
:1005600014D0052084F835002068016821F00101CD
:1005700001600098401C0090B84203D820680068D1
:10058000C007F6D184F8349084F83580E16C0029F6
:1005900010D001B02046BDE8F04308470168C90506
:1005A000D5D4036823F01003036084F8349084F8F2
:1005B0003580CCE7BDE8F8830C0000202DE9F0473A
:1005C000044600F0A9F9054664B14FF0000984F82B
:1005D0003490022184F835102068016821F001016F
:1005E00001600EE00120BDE8F08700BF00F094F943
:1005F000401B052805D920216165032084F83500BA
:10060000F1E720680068C007F0D1D4E90020D4E900
:100610000251D4E9043C284304F118051943084366
:10062000116895E8E00140EA0C001C4B2843194092
:1006300040EA060040EA0700B8F1040F40EA010072
:1006400003D1D4E90B131943084310602068012635
:10065000656A4069042D20F0070045EA00050CD1C9
:10066000D4E90A01054341B12046FFF797FE20B1C6
:100670004020606584F83560B4E720684561204615
:10068000FFF778FE94F85C303F229A408260C4F80D
:10069000549084F835600020A5E700003F8010E00A
:1006A0002DE9F041044690F8340000250128A66D9C
:1006B0000ED094F835C00127002084F83470BCF1C6
:1006C000010F07D0022584F834002846BDE8F081E8
:1006D0000220FBE7022784F8357060652046FFF7AB
:1006E00087FE94F85C103F208840B0602068016865
:1006F00041F0160101602068416941F080014161CB
:10070000206C20B12068016841F008010160206878
:10071000016841F001010160D7E7000070B50446AF
:1007200000F0FAF80546601C02D004480078044442
:1007300000F0F2F8401BA042FAD370BD0000002088
:100740002DE9F84FDFF89CE100224FF001084FF04F
:10075000030B4FF00F0A00BF0B6808FA02F42340A6
:10076000A34271D14D68022D01D0122D0FD1D508B1
:100770000E69570700EB8505A9462D6AFF0E0AFA98
:1007800007FCBE4025EA0C052E43C9F820600F790E
:10079000550006680BFA05FC07F0030726EA0C066D
:1007A000AF40374307604E68012E05D0022E03D0BC
:1007B000112E01D0122E0ED18668CF6826EA0C06C3
:1007C000AF403743876046680F79A643C7F30017E9
:1007D000974037434760C4688E6824EA0C04AE40F3
:1007E0002643C6604C68E40075D53F4C256845F447
:1007F00080452560246822F00306950704F48044B0
:1008000000943A4C2D0F2644D6F80848DFF8E0C093
:100810000AFA05F7604524EA070401D100272EE013
:10082000344FB84201D1012729E0334FB84201D1FA
:10083000022724E0314FB84201D103271FE0304F97
:10084000B84202D104271AE045E02E4FB84201D148
:10085000052714E02C4FB84201D106270FE02B4F9B
:10086000B84201D107270AE0294FB84201D1082731
:1008700005E0284FB84201D1092700E00A27AF4020
:1008800027437546C6F808784E68DEF80040F60340
:1008900024EA030400D51C43124E2C60361D4D681B
:1008A0003468AD0324EA030400D51C430D4F3460C3
:1008B00008374D683C68ED0224EA030400D51C4368
:1008C000084D3C600C354E682C68B60224EA0304DF
:1008D00000D51C432C60521C102AFFF43DAFBDE82C
:1008E000F88F0000003C01404438024000300140D5
:1008F000000002400004024000080240000C0240D8
:10090000001002400014024000180240001C024087
:100910000020024000240240014880687047000027
:10092000000000200248816802781144816070470D
:1009300000000020032010B500F06EF8002000F049
:1009400005F800F023F8002010BD000070B50D4D33
:1009500004464FF47A700C4A29781268B0FBF1F023
:10096000B2FBF0F000F006FB48B9102C07D20022D1
:100970002146501E00F030F800206C6070BD012050
:1009800070BD0000000000200C0000200A4808B5DF
:10099000016841F080510160006800F080500090D3
:1009A0000548001D016841F480410160006800F4C1
:1009B0008040009008BD000040380240002809DB5C
:1009C000410900F01F028900012001F1E02190405F
:1009D000C1F80001704700000E4BF0B41B680D46D3
:1009E000C3F30223C3F10706042E00D90426191D00
:1009F000072901D2002300E0DB1E012404FA06F1DE
:100A00009C40491E2940641E994014402143F0BC7B
:100A100001F084B80CED00E0064900F0070210B5C3
:100A20004FF6FF040868044B204040EA02201843B8
:100A3000086010BD0CED00E00000FA051848F8B59C
:100A4000016841F0805101600068164C00F0805050
:100A50000090206840F480302060FFF75DFF4FF485
:100A60007A76054605E000BFFFF756FF401BB0420F
:100A70000FD86068C003F7D5206840F400302060CC
:100A8000FFF74AFF054606E0FFF746FF401BB0426E
:100A900001D90320F8BD60688003F5D50020F8BDBA
:100AA00040380240007000402DE9F04705000F4635
:100AB00063D0444E306800F00F00B84209D230686D
:100AC00020F00F0038433060306800F00F00B8426B
:100AD00053D128683C4C810712D5400703D52068C4
:100AE00040F4E05020602878000703D5206840F4E7
:100AF00060402060A968206820F0F0000843206072
:100B00002878C0072AD0304968680839012810D0F1
:100B10000968022810D0890700292EDA216821F0FF
:100B2000030101432160FFF7F7FE804641F2883957
:100B30000DE009688903EFE78901EDE7FFF7ECFEB7
:100B4000A0EB0801494502D90320BDE8F087686899
:100B5000216801F00C01B1EB800FEFD1306800F09B
:100B60000F00B8420BD9306820F00F0038433060D6
:100B7000306800F00F00B84201D00120E5E7287886
:100B8000400705D5E968206820F4E050084320605C
:100B90002878000706D52869216821F4604141EAD8
:100BA000C000206000F016F82168084AC1F3031164
:100BB000515CC840064908600020FFF7C7FE0020CE
:100BC000C3E70000003C024008380240A81B0008B0
:100BD0000C000020154910B51548096811F00C02E9
:100BE00013D01449042A0FD0082A0ED10F4C241F09
:100BF0002268236802F03F025B0207D52068C0F339
:100C00008810A0FB010106E0084610BD2168C1F371
:100C10008811A1FB00010023FFF70CFB2168C1F341
:100C20000141491C4900B0FBF1F010BD08380240F9
:100C30000024F40040787D012DE9F84F05004FF0C5
:100C400000076ED02878DFF82093A9F1040AC007C6
:100C5000AAF104044CD0D9F800104846C1F3810130
:100C6000012908D00068C0F3810002280AD1DAF80F
:100C70000000400206D52068800339D56868002846
:100C8000DFD035E06868B0F5803F0BD010B1B0F52B
:100C9000A02F11D0206820F480302060206820F43C
:100CA000802002E0206840F480302060686890B1C5
:100CB000FFF732FE06460AE0206840F480202060FC
:100CC000F0E700BFFFF728FE801B642872D8206879
:100CD0008003F7D50CE0FFF71FFE064605E000BFD6
:100CE000FFF71AFE801B6428F0D820688003F7D431
:100CF0002878800742D5D9F80010484611F00C0F2B
:100D000008D00068C0F3810002280BD1DAF8000097
:100D1000400207D42068800718D5E868012800D170
:100D200014E01EE1E8680028206817D040F00100B8
:100D30002060FFF7F1FD064605E000BFFFF7ECFD80
:100D4000801B0228C2D820688007F7D5286921684F
:100D500021F0F80141EAC00020600FE020F001001E
:100D60002060FFF7D9FD064605E000BFFFF7D4FD80
:100D7000801B02281ED820688007F7D42878000737
:100D800029D5794869696C3000298046016812D0FC
:100D900041F001010160FFF7BFFD064605E000BF1D
:100DA000FFF7BAFD801B022804D8D8F8000080079E
:100DB000F6D510E089E021F001010160FFF7ACFDFC
:100DC000064604E0FFF7A8FD801B02287DD8D8F86E
:100DD00000008007F6D4287840076BD5DFF88881BB
:100DE00008F13808D8F80000C0000BD4D8F800107B
:100DF00041F08051C8F80010D8F80000012700F039
:100E00008050009059480168C90512D40168834692
:100E100041F480710160FFF77FFD064605E000BFE9
:100E2000FFF77AFD801B64284FD8DBF80000C0056F
:100E3000F6D54D4EA868683601280AD008B10528B5
:100E400011D0306820F001003060306820F00400DC
:100E500002E0306840F001003060A868A0B1FFF700
:100E60005BFD83460CE0306840F004003060F0E742
:100E7000FFF752FDA0EB0B0141F28830814268D8A8
:100E800030688007F4D50EE0FFF746FD834607E0A3
:100E9000FFF742FDA0EB0B0141F28830814258D8A8
:100EA00030688007F4D42FB1D8F8001021F08051B9
:100EB000C8F80010A869E0B3D9F80010C1F38101A7
:100EC00002294ED00228206800E042E020F0807025
:100ED000206003D0FFF720FD05463DE0FFF71CFD35
:100EE000064604E0FFF718FD801B022831D8206871
:100EF0008001F7D4D5E90921DFF874C0D5E90706E8
:100F000095F830304F0895F82C1030430CEB07451E
:100F100045EA8212104340EA016040EA0370CAF8D1
:100F20000000206840F080702060FFF7F5FC054667
:100F300005E014E0FFF7F0FC401B022809D8206808
:100F40008001F7D50BE000BFFFF7E6FC401B02284D
:100F500002D90320BDE8F88F20688001F4D4002076
:100F6000F8E70120F6E70000083802400070004072
:100F70000000FFFF401EB0F1807F10B501D30120BB
:100F800010BD4FF0E02460610F21601700F0C6FD36
:100F90000020A0610721216110BD00002DE9F04370
:100FA00090F83C20012A42D0012280F83C2051F8E0
:100FB0000C4BDFF880804FF0000991E8680051E9A0
:100FC000022723F44073B1F80CC03B43CF6923F4EC
:100FD00080631343026823F40063234323F48053A4
:100FE00043EA050323F4005343EA060323F4804352
:100FF00043EA07030C3923F47023424543EA0C43C8
:1010000002D00D4CA2420CD18D8C23F47006D1E994
:10101000073446EA055121F08071194321F000732D
:101020002343536480F83C900020BDE8F083022005
:10103000FBE70000000001400004014070B590F89B
:101040003C20012A24D0134C012580F83C50022278
:1010500080F83D2002685368A242966802D00E4C88
:10106000A24203D14C6823F4700323430C6823F09D
:10107000700389681C435460002326F080060268D0
:101080003143916080F83D5080F83C30184670BD87
:10109000022070BD000001400004014070470000C4
:1010A00010B586B0044614216846FFF70EF90E49C4
:1010B0002068884216D10D48016841F01001016096
:1010C00000680123022200F01000059000204FF478
:1010D000007100916946CDE90120CDE90303044880
:1010E000FFF72EFB06B010BD000001403038024073
:1010F0000010024070B5044690F83C000D460128EF
:101100000ED0012684F83C60022084F83D000C2AB1
:1011100045D007DC5AB1042A1BD0082A78D12CE02C
:10112000022070BD102A4ED0142A71D15DE02068D3
:1011300000F0C8FA2068816941F0080181612068E7
:10114000816921F00401816120682A698169114364
:1011500011E0206800F0F0FA2068816941F4006134
:1011600081612068816921F4806181612068296939
:10117000826942EA012181614AE0206800F018FB9F
:101180002068C16941F00801C1612068C16921F08E
:101190000401C16120682A69C169114311E0206816
:1011A00000F042FB2068C16941F40061C161206820
:1011B000C16921F48061C16120682969C26942EA7C
:1011C0000121C16124E0206800F05AFB2068416DD4
:1011D00041F0080141652068416D21F0040141653D
:1011E00020682A69416D114311E0206800F074FB0A
:1011F0002068416D41F4006141652068416D21F432
:101200008061416520682969426D42EA012141659A
:10121000002084F83D6084F83C0070BD10B50400E7
:1012200003D094F83D0010B107E0012010BD00206C
:1012300084F83C00204600F00DF8022084F83D00C0
:101240002068211D00F084F9012084F83D00002071
:1012500010BD00002DE9F843174980460068884218
:1012600027D11648016841F0010101600068402360
:10127000134C4FF4807C134900F0010004F10C0979
:10128000009000200D152160CE14DF0189E8E110E7
:10129000D902C4E908104FF040622046C4E9012396
:1012A000FFF78CF908B1FFF7B8F8C8F82440C4F884
:1012B0003880BDE8F8830000000001404438024057
:1012C0002C14002028640240704770472DE9F0413B
:1012D000044690F83D0017460D46022856D094F873
:1012E0003D00012805D10FB9002B71D1022084F8EF
:1012F0003D003B483B493C4E35B1042D16D0082DEE
:1013000047D00C2D24D156E0626AD063606A016434
:101310003946606AC6642268606A3432FFF7C0F9F1
:10132000B0BB2068C16841F4007110E0A26AD063CC
:10133000A06A01643946A06AC6642268A06A38328D
:10134000FFF7AEF920BB2068C16841F48061C1603D
:1013500020680122294600F061F92449206888426A
:1013600002D02349884203D1416C41F400414164D9
:101370002068204A81681140062906D0B1F5803FD7
:1013800003D0016841F0010101600020BDE8F08157
:101390001EE0E26AD063E06A01643946E06AC6642E
:1013A0002268E06A3C32FFF77BF988B92068C1689F
:1013B00041F40061CBE7226BD063206B01643946B6
:1013C000206BC6642268206B4032FFF769F908B1D0
:1013D0000120DBE72068C16841F48051B7E70000D5
:1013E0003716000875160008B31600080000014003
:1013F0000004014007000100FEE70000094808B5AD
:10140000016841F48001016000680022114600F487
:10141000800000903920FFF7DFFABDE8084039204E
:10142000FFF7CCBA30380240054808B5016841F0F2
:1014300010010160006800F01000009008BD00007D
:101440003038024010B596B000241C210BA812942D
:1014500013941494FEF739FF2C216846FEF735FFEC
:10146000224802222049592380E81600C0E90334AB
:1014700044618461FFF7D2FE08B1FEF7CEFF1B483E
:1014800012A9129413941494FFF7D8FD08B1FEF733
:10149000C4FF6020CDE90B04144800220BA90D9471
:1014A0000E940F9410941194FFF724FE08B1FEF7E8
:1014B000B4FF4FF400500094019401030294CDE96D
:1014C000044003940694CDE907410848694609940D
:1014D0000A94FFF763FD08B1FEF79FFF0348FFF78B
:1014E000DFFD16B010BD000000000140EC1300202D
:1014F000FEE7704770477047FFF714BA104A30B5DF
:101500001048146800210F4B44F470041460083331
:1015100005680D4A0D4C45F001050560196003682A
:10152000051D1340074A03600C322C600568E30573
:10153000034C25F480250560803C1160236030BD9C
:1015400088ED00E000380240FFFFF6FE1030002476
:10155000F0B5274B4FF0804E264D02689842264E3C
:10156000264F274C09D0704507D0A84205D0B0427D
:1015700003D0B84201D0A04205D1D1F804C022F076
:1015800070024CEA020298421BD0704519D0A84262
:1015900017D0B04215D0B84213D0A04211D0194D87
:1015A000A8420ED0184DA8420BD0184DA84208D022
:1015B000174DA84205D0174DA84202D0164DA8429B
:1015C00003D1CD6822F440722A434D6922F0800293
:1015D0002A43026098428A68C2620A68826201D025
:1015E000A04201D10969016301214161F0BD000000
:1015F000000001400004004000080040000C0040D2
:101600000004014000400140004401400048014006
:1016100000180040001C00400020004010B5046A83
:10162000012301F01F018B409C4304628A40016A40
:101630001143016210BD10B5846B012184F83D1087
:10164000626A824201D121770EE0A16A814201D112
:10165000022008E0E16A814201D1042003E0216B0D
:10166000814201D1082020772046FFF72DFE00207F
:10167000207710BD10B5846B012184F83D10626A9B
:10168000824201D121770EE0A16A814201D102207C
:1016900008E0E16A814201D1042003E0216B81422C
:1016A00001D1082020772046FFF70FFE0020207789
:1016B00010BD10B5806B012180F83D10FFF7EEFCE6
:1016C00010BD0000F0B5026ADFF860C0184F22F0CC
:1016D0000102DFF860E00262066A4268836926F070
:1016E00002060D68B8428C6803EA0C0323F003037A
:1016F00044EA060445EA030501D0704505D1CB68EC
:1017000024F00804234323F00404B84201D07045B8
:1017100005D122F44076D1E9053233431A434260C1
:101720008561496841630462F0BD00008FFFFEFFE0
:101730000000014000040140F0B5026A194E1A4C45
:1017400022F01002DFF864E00262056A43688269F1
:1017500025F02005D1F808C0A0420F6802EA060271
:1017600022F4407245EA0C1542EA072201D0704586
:1017700006D1CE6825F0800545EA061525F040051E
:10178000A04201D0704507D1D1E9054623F440635A
:1017900043EA840343EA86034360826149688163C4
:1017A0000562F0BDFF8FFFFE000001400004014014
:1017B000F0B5026A194F1A4E22F48072DFF864E025
:1017C0000262056A4368C26925F40075D1F808C051
:1017D000B0420C6802EA070222F0030245EA0C2537
:1017E00044EA020401D0704506D1CF6825F40062B6
:1017F00042EA072222F48065B04201D0704507D149
:1018000023F44052D1E9053642EA031242EA0613B4
:101810004360C4614968C1630562F0BD8FFFFEFF8C
:101820000000014000040140F0B5026A124B114F64
:1018300022F4805298420262046A4268C36924F426
:1018400000548E680D6803EA070323F4407344EAEA
:10185000063443EA052302D0084DA84204D14D695D
:1018600022F4804242EA85124260C3614968016401
:101870000462F0BDFF8FFFFE000001400004014044
:10188000F0B5026ADFF844C022F480320262056AD1
:101890004268446D25F400350E8960450C4F0B6895
:1018A00004EA070445EA064543EA040302D0094C6A
:1018B000A04204D14C6922F4803242EA0422426000
:1018C0004365496881650562F0BD00000000014084
:1018D0008FFFFEFF00040140F0B5026ADFF844C04C
:1018E00022F480120262046A4268436D24F40014F8
:1018F0000E8960450C4F0D6803EA070344EA06545D
:1019000043EA052302D0094DA84204D14D6922F4CF
:10191000802242EA8522426043654968C1650462CB
:10192000F0BD000000000140FF8FFFFE00040140F9
:10193000FEE70000F8B50024FF21002000F020F8A9
:10194000FF210646002000F01BF8FF21054600207D
:1019500000F016F800902B4608483246214600F069
:101960007DF8641CA4B25A2CE6D3044800F05AF85F
:10197000BDE8F8404FF4FA70FEF7D0BE1400002026
:1019800070B50D460446FEF787FC291B491C90FBE9
:10199000F1F201FB12002044C0B270BD30B593B02B
:1019A00034216846FEF791FC14210DA8FEF78DFC4A
:1019B0001A48016841F080510160006800F08050D1
:1019C00012901748016841F4404101600068002509
:1019D0000DF1200C022400940822D823CDE90645FD
:1019E00000F44040129010218CE81C0001200B9460
:1019F000CDE903016846FFF71FF9FFF71FF8E20280
:101A00004FF4A0510F20CDE910120DAA072182E852
:101A100031000DA8FFF748F813B030BD4038024040
:101A20000070004030B5002405462146284600F0ED
:101A300030F8641CA4B25A2CF7D304EB44014FF6DF
:101A4000FF72002002EAC10105E04A1C05EB4101DA
:101A5000A1F80E0191B29029F7D330BD30B55A29C3
:101A6000039D07D201EB41010C1842546370012021
:101A7000A57030BD002030BD70B5002404EB4405D6
:101A80002E18641C415572705A2CB370F6D3012085
:101A900070BDF0B55A2929D201EB41040021231869
:101AA0000126C1F107075D7806FA07F2154201D059
:101AB0003C2700E01E2701EBC40500EB4505A5F817
:101AC0000E71075D174201D03C2700E01E27A5F8E4
:101AD0001E719F78174201D03C2200E01E22A5F81B
:101AE0002E21491C0829DCD30120F0BD0020F0BDC7
:101AF00000214FF4106300F587720148FFF7E6BB41
:101B0000EC130020002310B504461A461946FFF7CF
:101B1000B3FF2046FFF786FF204610BD09070028C7
:101B20004FEA116104DB00F1E02080F800147047F7
:101B300000F00F0000F1E02080F8141D704702E073
:101B400008C8121F08C1002AFAD170477047002048
:101B500001E001C1121F002AFBD170470148FFF7C5
:101B6000D1BF000014000020FEF7E4FEFFF716FFCF
:101B7000FFF75AFCFFF742FCFFF764FC0748FFF74A
:101B8000B7FF0F2305481A461946FFF775FF0348AC
:101B9000FFF748FFFFF7CEFEFCE70000140000202F
:101BA00000061016000610160000000000000000DD
:101BB0000102030406070809DC1B000800000020DE
:101BC000140000003E1B0008F01B00081400002059
:101BD0007C1800004E1B000885FFFFFF010000007D
:101BE00010000000000000000024F40000000000CD
:04000005080001F9F5
:00000001FF
